:020000040800F2
:1000000068060020BD010008C5010008C7010008FE
:10001000C9010008CB010008CD0100080000000064
:10002000000000000000000000000000CF010008F8
:10003000D101000800000000D3010008D50100082C
:10004000D7010008D7010008D7010008D701000830
:10005000D7010008D7010008D7010008D701000820
:10006000D7010008D7010008D7010008D701000810
:10007000D7010008D7010008D7010008D701000800
:10008000D7010008D7010008D701000800000000D0
:10009000000000000000000000000000D701000880
:1000A000D7010008D7010008D7010008D7010008D0
:1000B000D7010008D7010008D7010008D7010008C0
:1000C000D7010008D7010008D7010008D7010008B0
:1000D000D7010008D7010008D7010008D7010008A0
:1000E000D7010008D7010008D70100080000000070
:1000F0000000000000000000000000000000000000
:1001000000000000000000000000000000000000EF
:100110000000000000000000D7010008D70100081F
:1001200000F002F800F03AF80AA090E8000C8244CF
:100130008344AAF10107DA4501D100F02FF8AFF2AC
:10014000090EBAE80F0013F0010F18BFFB1A43F0B5
:1001500001031847D8020000F8020000103A24BF3B
:1001600078C878C1FAD8520724BF30C830C144BF1C
:1001700004680C607047000000230024002500265E
:10018000103A28BF78C1FBD8520728BF30C148BFFA
:100190000B6070471FB51FBD10B510BD00F031F8E2
:1001A0001146FFF7F7FF00F007F900F04FF803B42E
:1001B000FFF7F2FF03BC00F057F800000948804742
:1001C00009480047FEE7FEE7FEE7FEE7FEE7FEE739
:1001D000FEE7FEE7FEE7FEE704480549054A064B51
:1001E0007047000055030008210100086800002046
:1001F00068060020680200206802002070477047EF
:100200007047754600F02CF8AE4605006946534627
:1002100020F00700854618B020B5FFF7DDFFBDE8E8
:1002200020404FF000064FF000074FF000084FF05D
:10023000000B21F00701AC46ACE8C009ACE8C009EE
:10024000ACE8C009ACE8C0098D46704710B504465B
:10025000AFF300802046BDE81040FFF7A8BF0000C4
:10026000004870470400002001491820ABBEFEE79B
:1002700026000200704741617047016170470246E5
:10028000906800EA0103012B01D100207047012092
:10029000FCE710B500F002F810BD00000CB500201E
:1002A000019000902A48006840F480302849086096
:1002B00000BF2748006800F4003000900198401CFF
:1002C0000190009818B90198B0F5A06FF1D12048BD
:1002D000006800F4003010B10120009001E000201F
:1002E00000900098012831D11948406818494860A9
:1002F00008464068486008464068486008464068CC
:1003000020F47C1048600846406840F4981048602B
:100310000846006840F08070086000BF0C48006824
:1003200000F000700028F9D00948406820F0030070
:10033000074948600846406840F00200486000BF36
:100340000348406800F00C000828F9D10CBD0000FB
:100350000010024010B51448006840F00100124936
:10036000086008464068114908400F49486008463F
:1003700000680F4908400C4908600846006820F4EE
:10038000802008600846406820F4FE0048604FF472
:100390001F0088600020C862FFF77BFF4FF00060FD
:1003A0000449086010BD0000001002400000FFF882
:1003B000FFFFF6FE08ED00E01848806940F01400E9
:1003C000164988611648006820F00F00144908603B
:1003D0000846006840F0040008601248406820F0B9
:1003E000FF00104948600846406840F0220048601D
:1003F00013E001210A48FFF742FF0B490870084645
:10040000007828B94FF440710648FFF736FF04E042
:100410004FF440710348FFF72EFFEAE70010024057
:100420000008014000100140000000204C040008BA
:1004300000000020040000005C01000850040008D7
:10044000040000206406000078010008000000009D
:0400000508000121CD
:00000001FF
